Archive member included to satisfy reference by file (symbol)

c:/st/stm32cubeide_1.5.0/stm32cubeide/plugins/com.st.stm32cube.ide.mcu.externaltools.gnu-tools-for-stm32.7-2018-q2-update.win32_1.5.0.202011040924/tools/bin/../lib/gcc/arm-none-eabi/7.3.1/../../../../arm-none-eabi/lib/thumb/v7e-m/fpv5/hard\libc_nano.a(lib_a-errno.o)
                              Core/Src/syscalls.o (__errno)
c:/st/stm32cubeide_1.5.0/stm32cubeide/plugins/com.st.stm32cube.ide.mcu.externaltools.gnu-tools-for-stm32.7-2018-q2-update.win32_1.5.0.202011040924/tools/bin/../lib/gcc/arm-none-eabi/7.3.1/../../../../arm-none-eabi/lib/thumb/v7e-m/fpv5/hard\libc_nano.a(lib_a-exit.o)
                              c:/st/stm32cubeide_1.5.0/stm32cubeide/plugins/com.st.stm32cube.ide.mcu.externaltools.gnu-tools-for-stm32.7-2018-q2-update.win32_1.5.0.202011040924/tools/bin/../lib/gcc/arm-none-eabi/7.3.1/../../../../arm-none-eabi/lib/thumb/v7e-m/fpv5/hard/crt0.o (exit)
c:/st/stm32cubeide_1.5.0/stm32cubeide/plugins/com.st.stm32cube.ide.mcu.externaltools.gnu-tools-for-stm32.7-2018-q2-update.win32_1.5.0.202011040924/tools/bin/../lib/gcc/arm-none-eabi/7.3.1/../../../../arm-none-eabi/lib/thumb/v7e-m/fpv5/hard\libc_nano.a(lib_a-impure.o)
                              c:/st/stm32cubeide_1.5.0/stm32cubeide/plugins/com.st.stm32cube.ide.mcu.externaltools.gnu-tools-for-stm32.7-2018-q2-update.win32_1.5.0.202011040924/tools/bin/../lib/gcc/arm-none-eabi/7.3.1/../../../../arm-none-eabi/lib/thumb/v7e-m/fpv5/hard\libc_nano.a(lib_a-exit.o) (_global_impure_ptr)
c:/st/stm32cubeide_1.5.0/stm32cubeide/plugins/com.st.stm32cube.ide.mcu.externaltools.gnu-tools-for-stm32.7-2018-q2-update.win32_1.5.0.202011040924/tools/bin/../lib/gcc/arm-none-eabi/7.3.1/../../../../arm-none-eabi/lib/thumb/v7e-m/fpv5/hard\libc_nano.a(lib_a-init.o)
                              c:/st/stm32cubeide_1.5.0/stm32cubeide/plugins/com.st.stm32cube.ide.mcu.externaltools.gnu-tools-for-stm32.7-2018-q2-update.win32_1.5.0.202011040924/tools/bin/../lib/gcc/arm-none-eabi/7.3.1/../../../../arm-none-eabi/lib/thumb/v7e-m/fpv5/hard/crt0.o (__libc_init_array)
c:/st/stm32cubeide_1.5.0/stm32cubeide/plugins/com.st.stm32cube.ide.mcu.externaltools.gnu-tools-for-stm32.7-2018-q2-update.win32_1.5.0.202011040924/tools/bin/../lib/gcc/arm-none-eabi/7.3.1/../../../../arm-none-eabi/lib/thumb/v7e-m/fpv5/hard\libc_nano.a(lib_a-memcpy-stub.o)
                              Core/Src/PortmapUART.o (memcpy)
c:/st/stm32cubeide_1.5.0/stm32cubeide/plugins/com.st.stm32cube.ide.mcu.externaltools.gnu-tools-for-stm32.7-2018-q2-update.win32_1.5.0.202011040924/tools/bin/../lib/gcc/arm-none-eabi/7.3.1/../../../../arm-none-eabi/lib/thumb/v7e-m/fpv5/hard\libc_nano.a(lib_a-memset.o)
                              c:/st/stm32cubeide_1.5.0/stm32cubeide/plugins/com.st.stm32cube.ide.mcu.externaltools.gnu-tools-for-stm32.7-2018-q2-update.win32_1.5.0.202011040924/tools/bin/../lib/gcc/arm-none-eabi/7.3.1/../../../../arm-none-eabi/lib/thumb/v7e-m/fpv5/hard/crt0.o (memset)
c:/st/stm32cubeide_1.5.0/stm32cubeide/plugins/com.st.stm32cube.ide.mcu.externaltools.gnu-tools-for-stm32.7-2018-q2-update.win32_1.5.0.202011040924/tools/bin/../lib/gcc/arm-none-eabi/7.3.1/thumb/v7e-m/fpv5/hard\libgcc.a(_aeabi_uldivmod.o)
                              Drivers/STM32F7xx_HAL_Driver/Src/stm32f7xx_hal_rcc.o (__aeabi_uldivmod)
c:/st/stm32cubeide_1.5.0/stm32cubeide/plugins/com.st.stm32cube.ide.mcu.externaltools.gnu-tools-for-stm32.7-2018-q2-update.win32_1.5.0.202011040924/tools/bin/../lib/gcc/arm-none-eabi/7.3.1/thumb/v7e-m/fpv5/hard\libgcc.a(_udivmoddi4.o)
                              c:/st/stm32cubeide_1.5.0/stm32cubeide/plugins/com.st.stm32cube.ide.mcu.externaltools.gnu-tools-for-stm32.7-2018-q2-update.win32_1.5.0.202011040924/tools/bin/../lib/gcc/arm-none-eabi/7.3.1/thumb/v7e-m/fpv5/hard\libgcc.a(_aeabi_uldivmod.o) (__udivmoddi4)
c:/st/stm32cubeide_1.5.0/stm32cubeide/plugins/com.st.stm32cube.ide.mcu.externaltools.gnu-tools-for-stm32.7-2018-q2-update.win32_1.5.0.202011040924/tools/bin/../lib/gcc/arm-none-eabi/7.3.1/thumb/v7e-m/fpv5/hard\libgcc.a(_dvmd_tls.o)
                              c:/st/stm32cubeide_1.5.0/stm32cubeide/plugins/com.st.stm32cube.ide.mcu.externaltools.gnu-tools-for-stm32.7-2018-q2-update.win32_1.5.0.202011040924/tools/bin/../lib/gcc/arm-none-eabi/7.3.1/thumb/v7e-m/fpv5/hard\libgcc.a(_aeabi_uldivmod.o) (__aeabi_ldiv0)

Allocating common symbols
Common symbol       size              file

uwTick              0x4               Drivers/STM32F7xx_HAL_Driver/Src/stm32f7xx_hal.o
pFlash              0x1c              Drivers/STM32F7xx_HAL_Driver/Src/stm32f7xx_hal_flash.o

Discarded input sections

 .text          0x0000000000000000        0x0 c:/st/stm32cubeide_1.5.0/stm32cubeide/plugins/com.st.stm32cube.ide.mcu.externaltools.gnu-tools-for-stm32.7-2018-q2-update.win32_1.5.0.202011040924/tools/bin/../lib/gcc/arm-none-eabi/7.3.1/thumb/v7e-m/fpv5/hard/crti.o
 .data          0x0000000000000000        0x0 c:/st/stm32cubeide_1.5.0/stm32cubeide/plugins/com.st.stm32cube.ide.mcu.externaltools.gnu-tools-for-stm32.7-2018-q2-update.win32_1.5.0.202011040924/tools/bin/../lib/gcc/arm-none-eabi/7.3.1/thumb/v7e-m/fpv5/hard/crti.o
 .bss           0x0000000000000000        0x0 c:/st/stm32cubeide_1.5.0/stm32cubeide/plugins/com.st.stm32cube.ide.mcu.externaltools.gnu-tools-for-stm32.7-2018-q2-update.win32_1.5.0.202011040924/tools/bin/../lib/gcc/arm-none-eabi/7.3.1/thumb/v7e-m/fpv5/hard/crti.o
 .data          0x0000000000000000        0x4 c:/st/stm32cubeide_1.5.0/stm32cubeide/plugins/com.st.stm32cube.ide.mcu.externaltools.gnu-tools-for-stm32.7-2018-q2-update.win32_1.5.0.202011040924/tools/bin/../lib/gcc/arm-none-eabi/7.3.1/thumb/v7e-m/fpv5/hard/crtbegin.o
 .text          0x0000000000000000       0x74 c:/st/stm32cubeide_1.5.0/stm32cubeide/plugins/com.st.stm32cube.ide.mcu.externaltools.gnu-tools-for-stm32.7-2018-q2-update.win32_1.5.0.202011040924/tools/bin/../lib/gcc/arm-none-eabi/7.3.1/../../../../arm-none-eabi/lib/thumb/v7e-m/fpv5/hard/crt0.o
 .data          0x0000000000000000        0x0 c:/st/stm32cubeide_1.5.0/stm32cubeide/plugins/com.st.stm32cube.ide.mcu.externaltools.gnu-tools-for-stm32.7-2018-q2-update.win32_1.5.0.202011040924/tools/bin/../lib/gcc/arm-none-eabi/7.3.1/../../../../arm-none-eabi/lib/thumb/v7e-m/fpv5/hard/crt0.o
 .bss           0x0000000000000000        0x0 c:/st/stm32cubeide_1.5.0/stm32cubeide/plugins/com.st.stm32cube.ide.mcu.externaltools.gnu-tools-for-stm32.7-2018-q2-update.win32_1.5.0.202011040924/tools/bin/../lib/gcc/arm-none-eabi/7.3.1/../../../../arm-none-eabi/lib/thumb/v7e-m/fpv5/hard/crt0.o
 .ARM.extab     0x0000000000000000        0x0 c:/st/stm32cubeide_1.5.0/stm32cubeide/plugins/com.st.stm32cube.ide.mcu.externaltools.gnu-tools-for-stm32.7-2018-q2-update.win32_1.5.0.202011040924/tools/bin/../lib/gcc/arm-none-eabi/7.3.1/../../../../arm-none-eabi/lib/thumb/v7e-m/fpv5/hard/crt0.o
 .ARM.exidx     0x0000000000000000        0x8 c:/st/stm32cubeide_1.5.0/stm32cubeide/plugins/com.st.stm32cube.ide.mcu.externaltools.gnu-tools-for-stm32.7-2018-q2-update.win32_1.5.0.202011040924/tools/bin/../lib/gcc/arm-none-eabi/7.3.1/../../../../arm-none-eabi/lib/thumb/v7e-m/fpv5/hard/crt0.o
 .ARM.attributes
                0x0000000000000000       0x1e c:/st/stm32cubeide_1.5.0/stm32cubeide/plugins/com.st.stm32cube.ide.mcu.externaltools.gnu-tools-for-stm32.7-2018-q2-update.win32_1.5.0.202011040924/tools/bin/../lib/gcc/arm-none-eabi/7.3.1/../../../../arm-none-eabi/lib/thumb/v7e-m/fpv5/hard/crt0.o
 .group         0x0000000000000000        0xc Core/Src/ILI9488.o
 .group         0x0000000000000000        0xc Core/Src/ILI9488.o
 .group         0x0000000000000000        0xc Core/Src/ILI9488.o
 .group         0x0000000000000000        0xc Core/Src/ILI9488.o
 .group         0x0000000000000000        0xc Core/Src/ILI9488.o
 .group         0x0000000000000000        0xc Core/Src/ILI9488.o
 .group         0x0000000000000000        0xc Core/Src/ILI9488.o
Memory Configuration

Name             Origin             Length             Attributes
RAM              0x0000000020000000 0x0000000000080000 xrw
FLASH            0x0000000008000000 0x0000000000200000 xr
*default*        0x0000000000000000 0xffffffffffffffff

Linker script and memory map

LOAD c:/st/stm32cubeide_1.5.0/stm32cubeide/plugins/com.st.stm32cube.ide.mcu.externaltools.gnu-tools-for-stm32.7-2018-q2-update.win32_1.5.0.202011040924/tools/bin/../lib/gcc/arm-none-eabi/7.3.1/thumb/v7e-m/fpv5/hard/crti.o
LOAD c:/st/stm32cubeide_1.5.0/stm32cubeide/plugins/com.st.stm32cube.ide.mcu.externaltools.gnu-tools-for-stm32.7-2018-q2-update.win32_1.5.0.202011040924/tools/bin/../lib/gcc/arm-none-eabi/7.3.1/thumb/v7e-m/fpv5/hard/crtbegin.o
LOAD c:/st/stm32cubeide_1.5.0/stm32cubeide/plugins/com.st.stm32cube.ide.mcu.externaltools.gnu-tools-for-stm32.7-2018-q2-update.win32_1.5.0.202011040924/tools/bin/../lib/gcc/arm-none-eabi/7.3.1/../../../../arm-none-eabi/lib/thumb/v7e-m/fpv5/hard/crt0.o
LOAD Core/Src/ILI9488.o
LOAD Core/Src/PortmapIO.o
LOAD Core/Src/PortmapSPI.o
LOAD Core/Src/PortmapUART.o
LOAD Core/Src/main.o
LOAD Core/Src/stm32f7xx_hal_msp.o
LOAD Core/Src/stm32f7xx_it.o
LOAD Core/Src/syscalls.o
LOAD Core/Src/sysmem.o
LOAD Core/Src/system_stm32f7xx.o
LOAD Core/Startup/startup_stm32f767zitx.o
LOAD Drivers/STM32F7xx_HAL_Driver/Src/stm32f7xx_hal.o
LOAD Drivers/STM32F7xx_HAL_Driver/Src/stm32f7xx_hal_cortex.o
LOAD Drivers/STM32F7xx_HAL_Driver/Src/stm32f7xx_hal_dma.o
LOAD Drivers/STM32F7xx_HAL_Driver/Src/stm32f7xx_hal_dma_ex.o
LOAD Drivers/STM32F7xx_HAL_Driver/Src/stm32f7xx_hal_exti.o
LOAD Drivers/STM32F7xx_HAL_Driver/Src/stm32f7xx_hal_flash.o
LOAD Drivers/STM32F7xx_HAL_Driver/Src/stm32f7xx_hal_flash_ex.o
LOAD Drivers/STM32F7xx_HAL_Driver/Src/stm32f7xx_hal_gpio.o
LOAD Drivers/STM32F7xx_HAL_Driver/Src/stm32f7xx_hal_i2c.o
LOAD Drivers/STM32F7xx_HAL_Driver/Src/stm32f7xx_hal_i2c_ex.o
LOAD Drivers/STM32F7xx_HAL_Driver/Src/stm32f7xx_hal_pwr.o
LOAD Drivers/STM32F7xx_HAL_Driver/Src/stm32f7xx_hal_pwr_ex.o
LOAD Drivers/STM32F7xx_HAL_Driver/Src/stm32f7xx_hal_rcc.o
LOAD Drivers/STM32F7xx_HAL_Driver/Src/stm32f7xx_hal_rcc_ex.o
LOAD Drivers/STM32F7xx_HAL_Driver/Src/stm32f7xx_hal_spi.o
LOAD Drivers/STM32F7xx_HAL_Driver/Src/stm32f7xx_hal_spi_ex.o
LOAD Drivers/STM32F7xx_HAL_Driver/Src/stm32f7xx_hal_tim.o
LOAD Drivers/STM32F7xx_HAL_Driver/Src/stm32f7xx_hal_tim_ex.o
LOAD Drivers/STM32F7xx_HAL_Driver/Src/stm32f7xx_hal_uart.o
LOAD Drivers/STM32F7xx_HAL_Driver/Src/stm32f7xx_hal_uart_ex.o
START GROUP
LOAD c:/st/stm32cubeide_1.5.0/stm32cubeide/plugins/com.st.stm32cube.ide.mcu.externaltools.gnu-tools-for-stm32.7-2018-q2-update.win32_1.5.0.202011040924/tools/bin/../lib/gcc/arm-none-eabi/7.3.1/../../../../arm-none-eabi/lib/thumb/v7e-m/fpv5/hard\libstdc++_nano.a
LOAD c:/st/stm32cubeide_1.5.0/stm32cubeide/plugins/com.st.stm32cube.ide.mcu.externaltools.gnu-tools-for-stm32.7-2018-q2-update.win32_1.5.0.202011040924/tools/bin/../lib/gcc/arm-none-eabi/7.3.1/../../../../arm-none-eabi/lib/thumb/v7e-m/fpv5/hard\libsupc++_nano.a
END GROUP
LOAD c:/st/stm32cubeide_1.5.0/stm32cubeide/plugins/com.st.stm32cube.ide.mcu.externaltools.gnu-tools-for-stm32.7-2018-q2-update.win32_1.5.0.202011040924/tools/bin/../lib/gcc/arm-none-eabi/7.3.1/../../../../arm-none-eabi/lib/thumb/v7e-m/fpv5/hard\libstdc++_nano.a
LOAD c:/st/stm32cubeide_1.5.0/stm32cubeide/plugins/com.st.stm32cube.ide.mcu.externaltools.gnu-tools-for-stm32.7-2018-q2-update.win32_1.5.0.202011040924/tools/bin/../lib/gcc/arm-none-eabi/7.3.1/../../../../arm-none-eabi/lib/thumb/v7e-m/fpv5/hard\libm.a
LOAD c:/st/stm32cubeide_1.5.0/stm32cubeide/plugins/com.st.stm32cube.ide.mcu.externaltools.gnu-tools-for-stm32.7-2018-q2-update.win32_1.5.0.202011040924/tools/bin/../lib/gcc/arm-none-eabi/7.3.1/../../../../arm-none-eabi/lib/thumb/v7e-m/fpv5/hard\libc_nano.a
START GROUP
LOAD c:/st/stm32cubeide_1.5.0/stm32cubeide/plugins/com.st.stm32cube.ide.mcu.externaltools.gnu-tools-for-stm32.7-2018-q2-update.win32_1.5.0.202011040924/tools/bin/../lib/gcc/arm-none-eabi/7.3.1/thumb/v7e-m/fpv5/hard\libgcc.a
LOAD c:/st/stm32cubeide_1.5.0/stm32cubeide/plugins/com.st.stm32cube.ide.mcu.externaltools.gnu-tools-for-stm32.7-2018-q2-update.win32_1.5.0.202011040924/tools/bin/../lib/gcc/arm-none-eabi/7.3.1/../../../../arm-none-eabi/lib/thumb/v7e-m/fpv5/hard\libc_nano.a
END GROUP
START GROUP
LOAD c:/st/stm32cubeide_1.5.0/stm32cubeide/plugins/com.st.stm32cube.ide.mcu.externaltools.gnu-tools-for-stm32.7-2018-q2-update.win32_1.5.0.202011040924/tools/bin/../lib/gcc/arm-none-eabi/7.3.1/thumb/v7e-m/fpv5/hard\libgcc.a
LOAD c:/st/stm32cubeide_1.5.0/stm32cubeide/plugins/com.st.stm32cube.ide.mcu.externaltools.gnu-tools-for-stm32.7-2018-q2-update.win32_1.5.0.202011040924/tools/bin/../lib/gcc/arm-none-eabi/7.3.1/../../../../arm-none-eabi/lib/thumb/v7e-m/fpv5/hard\libc_nano.a
LOAD c:/st/stm32cubeide_1.5.0/stm32cubeide/plugins/com.st.stm32cube.ide.mcu.externaltools.gnu-tools-for-stm32.7-2018-q2-update.win32_1.5.0.202011040924/tools/bin/../lib/gcc/arm-none-eabi/7.3.1/../../../../arm-none-eabi/lib/thumb/v7e-m/fpv5/hard\libnosys.a
END GROUP
START GROUP
LOAD c:/st/stm32cubeide_1.5.0/stm32cubeide/plugins/com.st.stm32cube.ide.mcu.externaltools.gnu-tools-for-stm32.7-2018-q2-update.win32_1.5.0.202011040924/tools/bin/../lib/gcc/arm-none-eabi/7.3.1/thumb/v7e-m/fpv5/hard\libgcc.a
LOAD c:/st/stm32cubeide_1.5.0/stm32cubeide/plugins/com.st.stm32cube.ide.mcu.externaltools.gnu-tools-for-stm32.7-2018-q2-update.win32_1.5.0.202011040924/tools/bin/../lib/gcc/arm-none-eabi/7.3.1/../../../../arm-none-eabi/lib/thumb/v7e-m/fpv5/hard\libc_nano.a
LOAD c:/st/stm32cubeide_1.5.0/stm32cubeide/plugins/com.st.stm32cube.ide.mcu.externaltools.gnu-tools-for-stm32.7-2018-q2-update.win32_1.5.0.202011040924/tools/bin/../lib/gcc/arm-none-eabi/7.3.1/../../../../arm-none-eabi/lib/thumb/v7e-m/fpv5/hard\libnosys.a
END GROUP
LOAD c:/st/stm32cubeide_1.5.0/stm32cubeide/plugins/com.st.stm32cube.ide.mcu.externaltools.gnu-tools-for-stm32.7-2018-q2-update.win32_1.5.0.202011040924/tools/bin/../lib/gcc/arm-none-eabi/7.3.1/thumb/v7e-m/fpv5/hard/crtend.o
LOAD c:/st/stm32cubeide_1.5.0/stm32cubeide/plugins/com.st.stm32cube.ide.mcu.externaltools.gnu-tools-for-stm32.7-2018-q2-update.win32_1.5.0.202011040924/tools/bin/../lib/gcc/arm-none-eabi/7.3.1/thumb/v7e-m/fpv5/hard/crtn.o
                0x0000000020080000                _estack = (ORIGIN (RAM) + LENGTH (RAM))
                0x0000000000000200                _Min_Heap_Size = 0x200
                0x0000000000000400                _Min_Stack_Size = 0x400

.isr_vector     0x0000000008000000      0x1f8
                0x0000000008000000                . = ALIGN (0x4)
 *(.isr_vector)
 .isr_vector    0x0000000008000000      0x1f8 Core/Startup/startup_stm32f767zitx.o
                0x0000000008000000                g_pfnVectors
                0x00000000080001f8                . = ALIGN (0x4)

.text           0x00000000080001f8     0x3380
                0x00000000080001f8                . = ALIGN (0x4)
 *(.text)
 .text          0x00000000080001f8       0x40 c:/st/stm32cubeide_1.5.0/stm32cubeide/plugins/com.st.stm32cube.ide.mcu.externaltools.gnu-tools-for-stm32.7-2018-q2-update.win32_1.5.0.202011040924/tools/bin/../lib/gcc/arm-none-eabi/7.3.1/thumb/v7e-m/fpv5/hard/crtbegin.o
 .text          0x0000000008000238       0x30 c:/st/stm32cubeide_1.5.0/stm32cubeide/plugins/com.st.stm32cube.ide.mcu.externaltools.gnu-tools-for-stm32.7-2018-q2-update.win32_1.5.0.202011040924/tools/bin/../lib/gcc/arm-none-eabi/7.3.1/thumb/v7e-m/fpv5/hard\libgcc.a(_aeabi_uldivmod.o)
                0x0000000008000238                __aeabi_uldivmod
 .text          0x0000000008000268      0x2cc c:/st/stm32cubeide_1.5.0/stm32cubeide/plugins/com.st.stm32cube.ide.mcu.externaltools.gnu-tools-for-stm32.7-2018-q2-update.win32_1.5.0.202011040924/tools/bin/../lib/gcc/arm-none-eabi/7.3.1/thumb/v7e-m/fpv5/hard\libgcc.a(_udivmoddi4.o)
                0x0000000008000268                __udivmoddi4
 .text          0x0000000008000534        0x4 c:/st/stm32cubeide_1.5.0/stm32cubeide/plugins/com.st.stm32cube.ide.mcu.externaltools.gnu-tools-for-stm32.7-2018-q2-update.win32_1.5.0.202011040924/tools/bin/../lib/gcc/arm-none-eabi/7.3.1/thumb/v7e-m/fpv5/hard\libgcc.a(_dvmd_tls.o)
                0x0000000008000534                __aeabi_idiv0
                0x0000000008000534                __aeabi_ldiv0
 *(.text*)
 .text._ZN7ILI9488C2EP9PortmapIOS1_S1_S1_S1_
                0x0000000008000538       0x48 Core/Src/ILI9488.o
                0x0000000008000538                ILI9488::ILI9488(PortmapIO*, PortmapIO*, PortmapIO*, PortmapIO*, PortmapIO*)
                0x0000000008000538                ILI9488::ILI9488(PortmapIO*, PortmapIO*, PortmapIO*, PortmapIO*, PortmapIO*)
 .text._ZN7ILI94885beginEv
                0x0000000008000580      0x238 Core/Src/ILI9488.o
                0x0000000008000580                ILI9488::begin()
 .text._ZN7ILI948813setAddrWindowEtttt
                0x00000000080007b8       0xa2 Core/Src/ILI9488.o
                0x00000000080007b8                ILI9488::setAddrWindow(unsigned short, unsigned short, unsigned short, unsigned short)
 .text._ZN7ILI948810fillScreenEt
                0x000000000800085a       0x32 Core/Src/ILI9488.o
                0x000000000800085a                ILI9488::fillScreen(unsigned short)
 .text._ZN7ILI94888fillRectEsssst
                0x000000000800088c      0x170 Core/Src/ILI9488.o
                0x000000000800088c                ILI9488::fillRect(short, short, short, short, unsigned short)
 .text._ZN7ILI948812writecommandEh
                0x00000000080009fc       0x40 Core/Src/ILI9488.o
                0x00000000080009fc                ILI9488::writecommand(unsigned char)
 .text._ZN7ILI948815write16BitColorEt
                0x0000000008000a3c       0xb4 Core/Src/ILI9488.o
                0x0000000008000a3c                ILI9488::write16BitColor(unsigned short)
 .text._ZN7ILI94889writedataEh
                0x0000000008000af0       0x40 Core/Src/ILI9488.o
                0x0000000008000af0                ILI9488::writedata(unsigned char)
 .text._ZN7ILI94888sendasIOEh
                0x0000000008000b30       0x60 Core/Src/ILI9488.o
                0x0000000008000b30                ILI9488::sendasIO(unsigned char)
 .text._ZN9PortmapIOC2Ev
                0x0000000008000b90       0x16 Core/Src/PortmapIO.o
                0x0000000008000b90                PortmapIO::PortmapIO()
                0x0000000008000b90                PortmapIO::PortmapIO()
 .text._ZN9PortmapIOC2EP12GPIO_TypeDeft
                0x0000000008000ba6       0x2e Core/Src/PortmapIO.o
                0x0000000008000ba6                PortmapIO::PortmapIO(GPIO_TypeDef*, unsigned short)
                0x0000000008000ba6                PortmapIO::PortmapIO(GPIO_TypeDef*, unsigned short)
 .text._ZN9PortmapIO6setLowEv
                0x0000000008000bd4       0x26 Core/Src/PortmapIO.o
                0x0000000008000bd4                PortmapIO::setLow()
 .text._ZN9PortmapIO7setHighEv
                0x0000000008000bfa       0x26 Core/Src/PortmapIO.o
                0x0000000008000bfa                PortmapIO::setHigh()
 .text._ZN10PortmapSPIC2Ev
                0x0000000008000c20       0x16 Core/Src/PortmapSPI.o
                0x0000000008000c20                PortmapSPI::PortmapSPI()
                0x0000000008000c20                PortmapSPI::PortmapSPI()
 *fill*         0x0000000008000c36        0x2 
 .text.main     0x0000000008000c38       0xa8 Core/Src/main.o
                0x0000000008000c38                main
 .text._Z18SystemClock_Configv
                0x0000000008000ce0      0x14c Core/Src/main.o
                0x0000000008000ce0                SystemClock_Config()
 .text._ZL12MX_SPI4_Initv
                0x0000000008000e2c       0x84 Core/Src/main.o
 .text._ZL19MX_USART3_UART_Initv
                0x0000000008000eb0       0x6c Core/Src/main.o
 .text._ZL12MX_GPIO_Initv
                0x0000000008000f1c      0x16c Core/Src/main.o
 .text.Error_Handler
                0x0000000008001088        0x8 Core/Src/main.o
                0x0000000008001088                Error_Handler
 .text.HAL_MspInit
                0x0000000008001090       0x48 Core/Src/stm32f7xx_hal_msp.o
                0x0000000008001090                HAL_MspInit
 .text.HAL_SPI_MspInit
                0x00000000080010d8       0x88 Core/Src/stm32f7xx_hal_msp.o
                0x00000000080010d8                HAL_SPI_MspInit
 .text.HAL_UART_MspInit
                0x0000000008001160       0x88 Core/Src/stm32f7xx_hal_msp.o
                0x0000000008001160                HAL_UART_MspInit
 .text.NMI_Handler
                0x00000000080011e8        0x6 Core/Src/stm32f7xx_it.o
                0x00000000080011e8                NMI_Handler
 .text.HardFault_Handler
                0x00000000080011ee        0x6 Core/Src/stm32f7xx_it.o
                0x00000000080011ee                HardFault_Handler
 .text.MemManage_Handler
                0x00000000080011f4        0x6 Core/Src/stm32f7xx_it.o
                0x00000000080011f4                MemManage_Handler
 .text.BusFault_Handler
                0x00000000080011fa        0x6 Core/Src/stm32f7xx_it.o
                0x00000000080011fa                BusFault_Handler
 .text.UsageFault_Handler
                0x0000000008001200        0x6 Core/Src/stm32f7xx_it.o
                0x0000000008001200                UsageFault_Handler
 .text.SVC_Handler
                0x0000000008001206        0xe Core/Src/stm32f7xx_it.o
                0x0000000008001206                SVC_Handler
 .text.DebugMon_Handler
                0x0000000008001214        0xe Core/Src/stm32f7xx_it.o
                0x0000000008001214                DebugMon_Handler
 .text.PendSV_Handler
                0x0000000008001222        0xe Core/Src/stm32f7xx_it.o
                0x0000000008001222                PendSV_Handler
 .text.SysTick_Handler
                0x0000000008001230        0xc Core/Src/stm32f7xx_it.o
                0x0000000008001230                SysTick_Handler
 .text.SystemInit
                0x000000000800123c       0x2c Core/Src/system_stm32f7xx.o
                0x000000000800123c                SystemInit
 .text.Reset_Handler
                0x0000000008001268       0x50 Core/Startup/startup_stm32f767zitx.o
                0x0000000008001268                Reset_Handler
 .text.Default_Handler
                0x00000000080012b8        0x2 Core/Startup/startup_stm32f767zitx.o
                0x00000000080012b8                RTC_Alarm_IRQHandler
                0x00000000080012b8                EXTI2_IRQHandler
                0x00000000080012b8                TIM8_CC_IRQHandler
                0x00000000080012b8                UART8_IRQHandler
                0x00000000080012b8                SPI4_IRQHandler
                0x00000000080012b8                TIM1_CC_IRQHandler
                0x00000000080012b8                DMA2_Stream5_IRQHandler
                0x00000000080012b8                JPEG_IRQHandler
                0x00000000080012b8                DMA1_Stream5_IRQHandler
                0x00000000080012b8                CAN3_RX1_IRQHandler
                0x00000000080012b8                PVD_IRQHandler
                0x00000000080012b8                TAMP_STAMP_IRQHandler
                0x00000000080012b8                CAN2_RX1_IRQHandler
                0x00000000080012b8                EXTI3_IRQHandler
                0x00000000080012b8                TIM8_TRG_COM_TIM14_IRQHandler
                0x00000000080012b8                DFSDM1_FLT1_IRQHandler
                0x00000000080012b8                TIM1_UP_TIM10_IRQHandler
                0x00000000080012b8                TIM8_UP_TIM13_IRQHandler
                0x00000000080012b8                I2C3_ER_IRQHandler
                0x00000000080012b8                DFSDM1_FLT2_IRQHandler
                0x00000000080012b8                EXTI0_IRQHandler
                0x00000000080012b8                I2C2_EV_IRQHandler
                0x00000000080012b8                DMA1_Stream2_IRQHandler
                0x00000000080012b8                CAN1_RX0_IRQHandler
                0x00000000080012b8                FPU_IRQHandler
                0x00000000080012b8                OTG_HS_WKUP_IRQHandler
                0x00000000080012b8                CAN3_SCE_IRQHandler
                0x00000000080012b8                LTDC_ER_IRQHandler
                0x00000000080012b8                CAN2_SCE_IRQHandler
                0x00000000080012b8                DMA2_Stream2_IRQHandler
                0x00000000080012b8                SPI1_IRQHandler
                0x00000000080012b8                TIM6_DAC_IRQHandler
                0x00000000080012b8                TIM1_BRK_TIM9_IRQHandler
                0x00000000080012b8                DCMI_IRQHandler
                0x00000000080012b8                CAN2_RX0_IRQHandler
                0x00000000080012b8                DMA2_Stream3_IRQHandler
                0x00000000080012b8                SAI2_IRQHandler
                0x00000000080012b8                DFSDM1_FLT3_IRQHandler
                0x00000000080012b8                USART6_IRQHandler
                0x00000000080012b8                CAN3_RX0_IRQHandler
                0x00000000080012b8                USART3_IRQHandler
                0x00000000080012b8                CAN1_RX1_IRQHandler
                0x00000000080012b8                UART5_IRQHandler
                0x00000000080012b8                DMA2_Stream0_IRQHandler
                0x00000000080012b8                TIM4_IRQHandler
                0x00000000080012b8                QUADSPI_IRQHandler
                0x00000000080012b8                I2C1_EV_IRQHandler
                0x00000000080012b8                DMA1_Stream6_IRQHandler
                0x00000000080012b8                DMA1_Stream1_IRQHandler
                0x00000000080012b8                UART4_IRQHandler
                0x00000000080012b8                TIM3_IRQHandler
                0x00000000080012b8                RCC_IRQHandler
                0x00000000080012b8                TIM8_BRK_TIM12_IRQHandler
                0x00000000080012b8                Default_Handler
                0x00000000080012b8                CEC_IRQHandler
                0x00000000080012b8                EXTI15_10_IRQHandler
                0x00000000080012b8                ADC_IRQHandler
                0x00000000080012b8                DMA1_Stream7_IRQHandler
                0x00000000080012b8                SPI5_IRQHandler
                0x00000000080012b8                TIM7_IRQHandler
                0x00000000080012b8                SDMMC1_IRQHandler
                0x00000000080012b8                CAN2_TX_IRQHandler
                0x00000000080012b8                TIM5_IRQHandler
                0x00000000080012b8                DMA2_Stream7_IRQHandler
                0x00000000080012b8                I2C3_EV_IRQHandler
                0x00000000080012b8                EXTI9_5_IRQHandler
                0x00000000080012b8                RTC_WKUP_IRQHandler
                0x00000000080012b8                LTDC_IRQHandler
                0x00000000080012b8                ETH_WKUP_IRQHandler
                0x00000000080012b8                SPDIF_RX_IRQHandler
                0x00000000080012b8                SPI2_IRQHandler
                0x00000000080012b8                OTG_HS_EP1_IN_IRQHandler
                0x00000000080012b8                DMA1_Stream0_IRQHandler
                0x00000000080012b8                CAN1_TX_IRQHandler
                0x00000000080012b8                EXTI4_IRQHandler
                0x00000000080012b8                RNG_IRQHandler
                0x00000000080012b8                ETH_IRQHandler
                0x00000000080012b8                OTG_HS_EP1_OUT_IRQHandler
                0x00000000080012b8                WWDG_IRQHandler
                0x00000000080012b8                SPI6_IRQHandler
                0x00000000080012b8                MDIOS_IRQHandler
                0x00000000080012b8                I2C4_EV_IRQHandler
                0x00000000080012b8                CAN3_TX_IRQHandler
                0x00000000080012b8                TIM2_IRQHandler
                0x00000000080012b8                OTG_FS_WKUP_IRQHandler
                0x00000000080012b8                TIM1_TRG_COM_TIM11_IRQHandler
                0x00000000080012b8                OTG_HS_IRQHandler
                0x00000000080012b8                DMA2D_IRQHandler
                0x00000000080012b8                EXTI1_IRQHandler
                0x00000000080012b8                SDMMC2_IRQHandler
                0x00000000080012b8                UART7_IRQHandler
                0x00000000080012b8                USART2_IRQHandler
                0x00000000080012b8                DFSDM1_FLT0_IRQHandler
                0x00000000080012b8                I2C2_ER_IRQHandler
                0x00000000080012b8                DMA2_Stream1_IRQHandler
                0x00000000080012b8                CAN1_SCE_IRQHandler
                0x00000000080012b8                FLASH_IRQHandler
                0x00000000080012b8                DMA2_Stream4_IRQHandler
                0x00000000080012b8                USART1_IRQHandler
                0x00000000080012b8                OTG_FS_IRQHandler
                0x00000000080012b8                SPI3_IRQHandler
                0x00000000080012b8                DMA1_Stream4_IRQHandler
                0x00000000080012b8                I2C1_ER_IRQHandler
                0x00000000080012b8                FMC_IRQHandler
                0x00000000080012b8                LPTIM1_IRQHandler
                0x00000000080012b8                I2C4_ER_IRQHandler
                0x00000000080012b8                DMA2_Stream6_IRQHandler
                0x00000000080012b8                SAI1_IRQHandler
                0x00000000080012b8                DMA1_Stream3_IRQHandler
 .text.HAL_Init
                0x00000000080012ba       0x1a Drivers/STM32F7xx_HAL_Driver/Src/stm32f7xx_hal.o
                0x00000000080012ba                HAL_Init
 .text.HAL_InitTick
                0x00000000080012d4       0x60 Drivers/STM32F7xx_HAL_Driver/Src/stm32f7xx_hal.o
                0x00000000080012d4                HAL_InitTick
 .text.HAL_IncTick
                0x0000000008001334       0x28 Drivers/STM32F7xx_HAL_Driver/Src/stm32f7xx_hal.o
                0x0000000008001334                HAL_IncTick
 .text.HAL_GetTick
                0x000000000800135c       0x18 Drivers/STM32F7xx_HAL_Driver/Src/stm32f7xx_hal.o
                0x000000000800135c                HAL_GetTick
 .text.HAL_Delay
                0x0000000008001374       0x44 Drivers/STM32F7xx_HAL_Driver/Src/stm32f7xx_hal.o
                0x0000000008001374                HAL_Delay
 .text.__NVIC_SetPriorityGrouping
                0x00000000080013b8       0x48 Drivers/STM32F7xx_HAL_Driver/Src/stm32f7xx_hal_cortex.o
 .text.__NVIC_GetPriorityGrouping
                0x0000000008001400       0x1c Drivers/STM32F7xx_HAL_Driver/Src/stm32f7xx_hal_cortex.o
 .text.__NVIC_SetPriority
                0x000000000800141c       0x54 Drivers/STM32F7xx_HAL_Driver/Src/stm32f7xx_hal_cortex.o
 .text.NVIC_EncodePriority
                0x0000000008001470       0x66 Drivers/STM32F7xx_HAL_Driver/Src/stm32f7xx_hal_cortex.o
 *fill*         0x00000000080014d6        0x2 
 .text.SysTick_Config
                0x00000000080014d8       0x44 Drivers/STM32F7xx_HAL_Driver/Src/stm32f7xx_hal_cortex.o
 .text.HAL_NVIC_SetPriorityGrouping
                0x000000000800151c       0x16 Drivers/STM32F7xx_HAL_Driver/Src/stm32f7xx_hal_cortex.o
                0x000000000800151c                HAL_NVIC_SetPriorityGrouping
 .text.HAL_NVIC_SetPriority
                0x0000000008001532       0x38 Drivers/STM32F7xx_HAL_Driver/Src/stm32f7xx_hal_cortex.o
                0x0000000008001532                HAL_NVIC_SetPriority
 .text.HAL_SYSTICK_Config
                0x000000000800156a       0x18 Drivers/STM32F7xx_HAL_Driver/Src/stm32f7xx_hal_cortex.o
                0x000000000800156a                HAL_SYSTICK_Config
 *fill*         0x0000000008001582        0x2 
 .text.HAL_GPIO_Init
                0x0000000008001584      0x354 Drivers/STM32F7xx_HAL_Driver/Src/stm32f7xx_hal_gpio.o
                0x0000000008001584                HAL_GPIO_Init
 .text.HAL_GPIO_WritePin
                0x00000000080018d8       0x32 Drivers/STM32F7xx_HAL_Driver/Src/stm32f7xx_hal_gpio.o
                0x00000000080018d8                HAL_GPIO_WritePin
 *fill*         0x000000000800190a        0x2 
 .text.HAL_PWREx_EnableOverDrive
                0x000000000800190c       0xa0 Drivers/STM32F7xx_HAL_Driver/Src/stm32f7xx_hal_pwr_ex.o
                0x000000000800190c                HAL_PWREx_EnableOverDrive
 .text.HAL_RCC_OscConfig
                0x00000000080019ac      0x55c Drivers/STM32F7xx_HAL_Driver/Src/stm32f7xx_hal_rcc.o
                0x00000000080019ac                HAL_RCC_OscConfig
 .text.HAL_RCC_ClockConfig
                0x0000000008001f08      0x1d8 Drivers/STM32F7xx_HAL_Driver/Src/stm32f7xx_hal_rcc.o
                0x0000000008001f08                HAL_RCC_ClockConfig
 .text.HAL_RCC_GetSysClockFreq
                0x00000000080020e0      0x164 Drivers/STM32F7xx_HAL_Driver/Src/stm32f7xx_hal_rcc.o
                0x00000000080020e0                HAL_RCC_GetSysClockFreq
 .text.HAL_RCC_GetHCLKFreq
                0x0000000008002244       0x18 Drivers/STM32F7xx_HAL_Driver/Src/stm32f7xx_hal_rcc.o
                0x0000000008002244                HAL_RCC_GetHCLKFreq
 .text.HAL_RCC_GetPCLK1Freq
                0x000000000800225c       0x28 Drivers/STM32F7xx_HAL_Driver/Src/stm32f7xx_hal_rcc.o
                0x000000000800225c                HAL_RCC_GetPCLK1Freq
 .text.HAL_RCC_GetPCLK2Freq
                0x0000000008002284       0x28 Drivers/STM32F7xx_HAL_Driver/Src/stm32f7xx_hal_rcc.o
                0x0000000008002284                HAL_RCC_GetPCLK2Freq
 .text.HAL_RCCEx_PeriphCLKConfig
                0x00000000080022ac      0x84c Drivers/STM32F7xx_HAL_Driver/Src/stm32f7xx_hal_rcc_ex.o
                0x00000000080022ac                HAL_RCCEx_PeriphCLKConfig
 .text.HAL_SPI_Init
                0x0000000008002af8      0x124 Drivers/STM32F7xx_HAL_Driver/Src/stm32f7xx_hal_spi.o
                0x0000000008002af8                HAL_SPI_Init
 .text.HAL_MultiProcessor_Init
                0x0000000008002c1c       0xd4 Drivers/STM32F7xx_HAL_Driver/Src/stm32f7xx_hal_uart.o
                0x0000000008002c1c                HAL_MultiProcessor_Init
 .text.UART_SetConfig
                0x0000000008002cf0      0x554 Drivers/STM32F7xx_HAL_Driver/Src/stm32f7xx_hal_uart.o
                0x0000000008002cf0                UART_SetConfig
 .text.UART_AdvFeatureConfig
                0x0000000008003244      0x144 Drivers/STM32F7xx_HAL_Driver/Src/stm32f7xx_hal_uart.o
                0x0000000008003244                UART_AdvFeatureConfig
 .text.UART_CheckIdleState
                0x0000000008003388       0x8a Drivers/STM32F7xx_HAL_Driver/Src/stm32f7xx_hal_uart.o
                0x0000000008003388                UART_CheckIdleState
 .text.UART_WaitOnFlagUntilTimeout
                0x0000000008003412       0xf6 Drivers/STM32F7xx_HAL_Driver/Src/stm32f7xx_hal_uart.o
                0x0000000008003412                UART_WaitOnFlagUntilTimeout
 .text.__libc_init_array
                0x0000000008003508       0x48 c:/st/stm32cubeide_1.5.0/stm32cubeide/plugins/com.st.stm32cube.ide.mcu.externaltools.gnu-tools-for-stm32.7-2018-q2-update.win32_1.5.0.202011040924/tools/bin/../lib/gcc/arm-none-eabi/7.3.1/../../../../arm-none-eabi/lib/thumb/v7e-m/fpv5/hard\libc_nano.a(lib_a-init.o)
                0x0000000008003508                __libc_init_array
 .text.memset   0x0000000008003550       0x10 c:/st/stm32cubeide_1.5.0/stm32cubeide/plugins/com.st.stm32cube.ide.mcu.externaltools.gnu-tools-for-stm32.7-2018-q2-update.win32_1.5.0.202011040924/tools/bin/../lib/gcc/arm-none-eabi/7.3.1/../../../../arm-none-eabi/lib/thumb/v7e-m/fpv5/hard\libc_nano.a(lib_a-memset.o)
                0x0000000008003550                memset
 *(.glue_7)
 .glue_7        0x0000000008003560        0x0 linker stubs
 *(.glue_7t)
 .glue_7t       0x0000000008003560        0x0 linker stubs
 *(.eh_frame)
 .eh_frame      0x0000000008003560        0x0 c:/st/stm32cubeide_1.5.0/stm32cubeide/plugins/com.st.stm32cube.ide.mcu.externaltools.gnu-tools-for-stm32.7-2018-q2-update.win32_1.5.0.202011040924/tools/bin/../lib/gcc/arm-none-eabi/7.3.1/thumb/v7e-m/fpv5/hard/crtbegin.o
 *(.init)
 .init          0x0000000008003560        0x4 c:/st/stm32cubeide_1.5.0/stm32cubeide/plugins/com.st.stm32cube.ide.mcu.externaltools.gnu-tools-for-stm32.7-2018-q2-update.win32_1.5.0.202011040924/tools/bin/../lib/gcc/arm-none-eabi/7.3.1/thumb/v7e-m/fpv5/hard/crti.o
                0x0000000008003560                _init
 .init          0x0000000008003564        0x8 c:/st/stm32cubeide_1.5.0/stm32cubeide/plugins/com.st.stm32cube.ide.mcu.externaltools.gnu-tools-for-stm32.7-2018-q2-update.win32_1.5.0.202011040924/tools/bin/../lib/gcc/arm-none-eabi/7.3.1/thumb/v7e-m/fpv5/hard/crtn.o
 *(.fini)
 .fini          0x000000000800356c        0x4 c:/st/stm32cubeide_1.5.0/stm32cubeide/plugins/com.st.stm32cube.ide.mcu.externaltools.gnu-tools-for-stm32.7-2018-q2-update.win32_1.5.0.202011040924/tools/bin/../lib/gcc/arm-none-eabi/7.3.1/thumb/v7e-m/fpv5/hard/crti.o
                0x000000000800356c                _fini
 .fini          0x0000000008003570        0x8 c:/st/stm32cubeide_1.5.0/stm32cubeide/plugins/com.st.stm32cube.ide.mcu.externaltools.gnu-tools-for-stm32.7-2018-q2-update.win32_1.5.0.202011040924/tools/bin/../lib/gcc/arm-none-eabi/7.3.1/thumb/v7e-m/fpv5/hard/crtn.o
                0x0000000008003578                . = ALIGN (0x4)
                0x0000000008003578                _etext = .

.vfp11_veneer   0x0000000008003578        0x0
 .vfp11_veneer  0x0000000008003578        0x0 linker stubs

.v4_bx          0x0000000008003578        0x0
 .v4_bx         0x0000000008003578        0x0 linker stubs

.iplt           0x0000000008003578        0x0
 .iplt          0x0000000008003578        0x0 c:/st/stm32cubeide_1.5.0/stm32cubeide/plugins/com.st.stm32cube.ide.mcu.externaltools.gnu-tools-for-stm32.7-2018-q2-update.win32_1.5.0.202011040924/tools/bin/../lib/gcc/arm-none-eabi/7.3.1/thumb/v7e-m/fpv5/hard/crtbegin.o

.rodata         0x0000000008003578       0x18
                0x0000000008003578                . = ALIGN (0x4)
 *(.rodata)
 *(.rodata*)
 .rodata.AHBPrescTable
                0x0000000008003578       0x10 Core/Src/system_stm32f7xx.o
                0x0000000008003578                AHBPrescTable
 .rodata.APBPrescTable
                0x0000000008003588        0x8 Core/Src/system_stm32f7xx.o
                0x0000000008003588                APBPrescTable
                0x0000000008003590                . = ALIGN (0x4)

.ARM.extab      0x0000000008003590        0x0
                0x0000000008003590                . = ALIGN (0x4)
 *(.ARM.extab* .gnu.linkonce.armextab.*)
                0x0000000008003590                . = ALIGN (0x4)

.ARM            0x0000000008003590        0x8
                0x0000000008003590                . = ALIGN (0x4)
                0x0000000008003590                __exidx_start = .
 *(.ARM.exidx*)
 .ARM.exidx     0x0000000008003590        0x8 c:/st/stm32cubeide_1.5.0/stm32cubeide/plugins/com.st.stm32cube.ide.mcu.externaltools.gnu-tools-for-stm32.7-2018-q2-update.win32_1.5.0.202011040924/tools/bin/../lib/gcc/arm-none-eabi/7.3.1/thumb/v7e-m/fpv5/hard\libgcc.a(_udivmoddi4.o)
                0x0000000008003598                __exidx_end = .
                0x0000000008003598                . = ALIGN (0x4)

.rel.dyn        0x0000000008003598        0x0
 .rel.iplt      0x0000000008003598        0x0 c:/st/stm32cubeide_1.5.0/stm32cubeide/plugins/com.st.stm32cube.ide.mcu.externaltools.gnu-tools-for-stm32.7-2018-q2-update.win32_1.5.0.202011040924/tools/bin/../lib/gcc/arm-none-eabi/7.3.1/thumb/v7e-m/fpv5/hard/crtbegin.o

.preinit_array  0x0000000008003598        0x0
                0x0000000008003598                . = ALIGN (0x4)
                0x0000000008003598                PROVIDE (__preinit_array_start = .)
 *(.preinit_array*)
                0x0000000008003598                PROVIDE (__preinit_array_end = .)
                0x0000000008003598                . = ALIGN (0x4)

.init_array     0x0000000008003598        0x4
                0x0000000008003598                . = ALIGN (0x4)
                0x0000000008003598                PROVIDE (__init_array_start = .)
 *(SORT_BY_NAME(.init_array.*))
 *(.init_array*)
 .init_array    0x0000000008003598        0x4 c:/st/stm32cubeide_1.5.0/stm32cubeide/plugins/com.st.stm32cube.ide.mcu.externaltools.gnu-tools-for-stm32.7-2018-q2-update.win32_1.5.0.202011040924/tools/bin/../lib/gcc/arm-none-eabi/7.3.1/thumb/v7e-m/fpv5/hard/crtbegin.o
                0x000000000800359c                PROVIDE (__init_array_end = .)
                0x000000000800359c                . = ALIGN (0x4)

.fini_array     0x000000000800359c        0x4
                0x000000000800359c                . = ALIGN (0x4)
                [!provide]                        PROVIDE (__fini_array_start = .)
 *(SORT_BY_NAME(.fini_array.*))
 *(.fini_array*)
 .fini_array    0x000000000800359c        0x4 c:/st/stm32cubeide_1.5.0/stm32cubeide/plugins/com.st.stm32cube.ide.mcu.externaltools.gnu-tools-for-stm32.7-2018-q2-update.win32_1.5.0.202011040924/tools/bin/../lib/gcc/arm-none-eabi/7.3.1/thumb/v7e-m/fpv5/hard/crtbegin.o
                [!provide]                        PROVIDE (__fini_array_end = .)
                0x00000000080035a0                . = ALIGN (0x4)
                0x00000000080035a0                _sidata = LOADADDR (.data)

.data           0x0000000020000000        0xc load address 0x00000000080035a0
                0x0000000020000000                . = ALIGN (0x4)
                0x0000000020000000                _sdata = .
 *(.data)
 *(.data*)
 .data.SystemCoreClock
                0x0000000020000000        0x4 Core/Src/system_stm32f7xx.o
                0x0000000020000000                SystemCoreClock
 .data.uwTickPrio
                0x0000000020000004        0x4 Drivers/STM32F7xx_HAL_Driver/Src/stm32f7xx_hal.o
                0x0000000020000004                uwTickPrio
 .data.uwTickFreq
                0x0000000020000008        0x1 Drivers/STM32F7xx_HAL_Driver/Src/stm32f7xx_hal.o
                0x0000000020000008                uwTickFreq
 *(.RamFunc)
 *(.RamFunc*)
                0x000000002000000c                . = ALIGN (0x4)
 *fill*         0x0000000020000009        0x3 
                0x000000002000000c                _edata = .

.igot.plt       0x000000002000000c        0x0 load address 0x00000000080035ac
 .igot.plt      0x000000002000000c        0x0 c:/st/stm32cubeide_1.5.0/stm32cubeide/plugins/com.st.stm32cube.ide.mcu.externaltools.gnu-tools-for-stm32.7-2018-q2-update.win32_1.5.0.202011040924/tools/bin/../lib/gcc/arm-none-eabi/7.3.1/thumb/v7e-m/fpv5/hard/crtbegin.o
                0x000000002000000c                . = ALIGN (0x4)

.bss            0x000000002000000c      0x104 load address 0x00000000080035ac
                0x000000002000000c                _sbss = .
                0x000000002000000c                __bss_start__ = _sbss
 *(.bss)
 .bss           0x000000002000000c       0x1c c:/st/stm32cubeide_1.5.0/stm32cubeide/plugins/com.st.stm32cube.ide.mcu.externaltools.gnu-tools-for-stm32.7-2018-q2-update.win32_1.5.0.202011040924/tools/bin/../lib/gcc/arm-none-eabi/7.3.1/thumb/v7e-m/fpv5/hard/crtbegin.o
 *(.bss*)
 .bss.hspi4     0x0000000020000028       0x64 Core/Src/main.o
                0x0000000020000028                hspi4
 .bss.huart3    0x000000002000008c       0x80 Core/Src/main.o
                0x000000002000008c                huart3
 *(COMMON)
 COMMON         0x000000002000010c        0x4 Drivers/STM32F7xx_HAL_Driver/Src/stm32f7xx_hal.o
                0x000000002000010c                uwTick
                0x0000000020000110                . = ALIGN (0x4)
                0x0000000020000110                _ebss = .
                0x0000000020000110                __bss_end__ = _ebss

._user_heap_stack
                0x0000000020000110      0x600 load address 0x00000000080035ac
                0x0000000020000110                . = ALIGN (0x8)
                [!provide]                        PROVIDE (end = .)
                0x0000000020000110                PROVIDE (_end = .)
                0x0000000020000310                . = (. + _Min_Heap_Size)
 *fill*         0x0000000020000110      0x200 
                0x0000000020000710                . = (. + _Min_Stack_Size)
 *fill*         0x0000000020000310      0x400 
                0x0000000020000710                . = ALIGN (0x8)

/DISCARD/
 libc.a(*)
 libm.a(*)
 libgcc.a(*)

.ARM.attributes
                0x0000000000000000       0x2e
 *(.ARM.attributes)
 .ARM.attributes
                0x0000000000000000       0x20 c:/st/stm32cubeide_1.5.0/stm32cubeide/plugins/com.st.stm32cube.ide.mcu.externaltools.gnu-tools-for-stm32.7-2018-q2-update.win32_1.5.0.202011040924/tools/bin/../lib/gcc/arm-none-eabi/7.3.1/thumb/v7e-m/fpv5/hard/crti.o
 .ARM.attributes
                0x0000000000000020       0x32 c:/st/stm32cubeide_1.5.0/stm32cubeide/plugins/com.st.stm32cube.ide.mcu.externaltools.gnu-tools-for-stm32.7-2018-q2-update.win32_1.5.0.202011040924/tools/bin/../lib/gcc/arm-none-eabi/7.3.1/thumb/v7e-m/fpv5/hard/crtbegin.o
 .ARM.attributes
                0x0000000000000052       0x37 Core/Src/ILI9488.o
 .ARM.attributes
                0x0000000000000089       0x37 Core/Src/PortmapIO.o
 .ARM.attributes
                0x00000000000000c0       0x37 Core/Src/PortmapSPI.o
 .ARM.attributes
                0x00000000000000f7       0x37 Core/Src/main.o
 .ARM.attributes
                0x000000000000012e       0x37 Core/Src/stm32f7xx_hal_msp.o
 .ARM.attributes
                0x0000000000000165       0x37 Core/Src/stm32f7xx_it.o
 .ARM.attributes
                0x000000000000019c       0x37 Core/Src/system_stm32f7xx.o
 .ARM.attributes
                0x00000000000001d3       0x21 Core/Startup/startup_stm32f767zitx.o
 .ARM.attributes
                0x00000000000001f4       0x37 Drivers/STM32F7xx_HAL_Driver/Src/stm32f7xx_hal.o
 .ARM.attributes
                0x000000000000022b       0x37 Drivers/STM32F7xx_HAL_Driver/Src/stm32f7xx_hal_cortex.o
 .ARM.attributes
                0x0000000000000262       0x37 Drivers/STM32F7xx_HAL_Driver/Src/stm32f7xx_hal_gpio.o
 .ARM.attributes
                0x0000000000000299       0x37 Drivers/STM32F7xx_HAL_Driver/Src/stm32f7xx_hal_pwr_ex.o
 .ARM.attributes
                0x00000000000002d0       0x37 Drivers/STM32F7xx_HAL_Driver/Src/stm32f7xx_hal_rcc.o
 .ARM.attributes
                0x0000000000000307       0x37 Drivers/STM32F7xx_HAL_Driver/Src/stm32f7xx_hal_rcc_ex.o
 .ARM.attributes
                0x000000000000033e       0x37 Drivers/STM32F7xx_HAL_Driver/Src/stm32f7xx_hal_spi.o
 .ARM.attributes
                0x0000000000000375       0x37 Drivers/STM32F7xx_HAL_Driver/Src/stm32f7xx_hal_uart.o
 .ARM.attributes
                0x00000000000003ac       0x32 c:/st/stm32cubeide_1.5.0/stm32cubeide/plugins/com.st.stm32cube.ide.mcu.externaltools.gnu-tools-for-stm32.7-2018-q2-update.win32_1.5.0.202011040924/tools/bin/../lib/gcc/arm-none-eabi/7.3.1/../../../../arm-none-eabi/lib/thumb/v7e-m/fpv5/hard\libc_nano.a(lib_a-init.o)
 .ARM.attributes
                0x00000000000003de       0x32 c:/st/stm32cubeide_1.5.0/stm32cubeide/plugins/com.st.stm32cube.ide.mcu.externaltools.gnu-tools-for-stm32.7-2018-q2-update.win32_1.5.0.202011040924/tools/bin/../lib/gcc/arm-none-eabi/7.3.1/../../../../arm-none-eabi/lib/thumb/v7e-m/fpv5/hard\libc_nano.a(lib_a-memset.o)
 .ARM.attributes
                0x0000000000000410       0x20 c:/st/stm32cubeide_1.5.0/stm32cubeide/plugins/com.st.stm32cube.ide.mcu.externaltools.gnu-tools-for-stm32.7-2018-q2-update.win32_1.5.0.202011040924/tools/bin/../lib/gcc/arm-none-eabi/7.3.1/thumb/v7e-m/fpv5/hard\libgcc.a(_aeabi_uldivmod.o)
 .ARM.attributes
                0x0000000000000430       0x32 c:/st/stm32cubeide_1.5.0/stm32cubeide/plugins/com.st.stm32cube.ide.mcu.externaltools.gnu-tools-for-stm32.7-2018-q2-update.win32_1.5.0.202011040924/tools/bin/../lib/gcc/arm-none-eabi/7.3.1/thumb/v7e-m/fpv5/hard\libgcc.a(_udivmoddi4.o)
 .ARM.attributes
                0x0000000000000462       0x20 c:/st/stm32cubeide_1.5.0/stm32cubeide/plugins/com.st.stm32cube.ide.mcu.externaltools.gnu-tools-for-stm32.7-2018-q2-update.win32_1.5.0.202011040924/tools/bin/../lib/gcc/arm-none-eabi/7.3.1/thumb/v7e-m/fpv5/hard\libgcc.a(_dvmd_tls.o)
 .ARM.attributes
                0x0000000000000482       0x20 c:/st/stm32cubeide_1.5.0/stm32cubeide/plugins/com.st.stm32cube.ide.mcu.externaltools.gnu-tools-for-stm32.7-2018-q2-update.win32_1.5.0.202011040924/tools/bin/../lib/gcc/arm-none-eabi/7.3.1/thumb/v7e-m/fpv5/hard/crtn.o
OUTPUT(ILI9488_Library.elf elf32-littlearm)

.debug_info     0x0000000000000000     0xf5b1
 .debug_info    0x0000000000000000     0x2817 Core/Src/ILI9488.o
 .debug_info    0x0000000000002817      0xcb1 Core/Src/PortmapIO.o
 .debug_info    0x00000000000034c8     0x1084 Core/Src/PortmapSPI.o
 .debug_info    0x000000000000454c     0x2ec3 Core/Src/main.o
 .debug_info    0x000000000000740f      0xd4b Core/Src/stm32f7xx_hal_msp.o
 .debug_info    0x000000000000815a      0x20a Core/Src/stm32f7xx_it.o
 .debug_info    0x0000000000008364      0x73d Core/Src/system_stm32f7xx.o
 .debug_info    0x0000000000008aa1       0x22 Core/Startup/startup_stm32f767zitx.o
 .debug_info    0x0000000000008ac3      0xa46 Drivers/STM32F7xx_HAL_Driver/Src/stm32f7xx_hal.o
 .debug_info    0x0000000000009509     0x108c Drivers/STM32F7xx_HAL_Driver/Src/stm32f7xx_hal_cortex.o
 .debug_info    0x000000000000a595      0x7e9 Drivers/STM32F7xx_HAL_Driver/Src/stm32f7xx_hal_gpio.o
 .debug_info    0x000000000000ad7e      0x96b Drivers/STM32F7xx_HAL_Driver/Src/stm32f7xx_hal_pwr_ex.o
 .debug_info    0x000000000000b6e9      0x996 Drivers/STM32F7xx_HAL_Driver/Src/stm32f7xx_hal_rcc.o
 .debug_info    0x000000000000c07f      0x7d1 Drivers/STM32F7xx_HAL_Driver/Src/stm32f7xx_hal_rcc_ex.o
 .debug_info    0x000000000000c850     0x166a Drivers/STM32F7xx_HAL_Driver/Src/stm32f7xx_hal_spi.o
 .debug_info    0x000000000000deba     0x16f7 Drivers/STM32F7xx_HAL_Driver/Src/stm32f7xx_hal_uart.o

.debug_abbrev   0x0000000000000000     0x21be
 .debug_abbrev  0x0000000000000000      0x44b Core/Src/ILI9488.o
 .debug_abbrev  0x000000000000044b      0x29e Core/Src/PortmapIO.o
 .debug_abbrev  0x00000000000006e9      0x2a0 Core/Src/PortmapSPI.o
 .debug_abbrev  0x0000000000000989      0x406 Core/Src/main.o
 .debug_abbrev  0x0000000000000d8f      0x18c Core/Src/stm32f7xx_hal_msp.o
 .debug_abbrev  0x0000000000000f1b       0xc6 Core/Src/stm32f7xx_it.o
 .debug_abbrev  0x0000000000000fe1      0x147 Core/Src/system_stm32f7xx.o
 .debug_abbrev  0x0000000000001128       0x12 Core/Startup/startup_stm32f767zitx.o
 .debug_abbrev  0x000000000000113a      0x1c7 Drivers/STM32F7xx_HAL_Driver/Src/stm32f7xx_hal.o
 .debug_abbrev  0x0000000000001301      0x2fa Drivers/STM32F7xx_HAL_Driver/Src/stm32f7xx_hal_cortex.o
 .debug_abbrev  0x00000000000015fb      0x1c9 Drivers/STM32F7xx_HAL_Driver/Src/stm32f7xx_hal_gpio.o
 .debug_abbrev  0x00000000000017c4      0x1b8 Drivers/STM32F7xx_HAL_Driver/Src/stm32f7xx_hal_pwr_ex.o
 .debug_abbrev  0x000000000000197c      0x268 Drivers/STM32F7xx_HAL_Driver/Src/stm32f7xx_hal_rcc.o
 .debug_abbrev  0x0000000000001be4      0x1ad Drivers/STM32F7xx_HAL_Driver/Src/stm32f7xx_hal_rcc_ex.o
 .debug_abbrev  0x0000000000001d91      0x228 Drivers/STM32F7xx_HAL_Driver/Src/stm32f7xx_hal_spi.o
 .debug_abbrev  0x0000000000001fb9      0x205 Drivers/STM32F7xx_HAL_Driver/Src/stm32f7xx_hal_uart.o

.debug_aranges  0x0000000000000000      0xa68
 .debug_aranges
                0x0000000000000000       0xe0 Core/Src/ILI9488.o
 .debug_aranges
                0x00000000000000e0       0x48 Core/Src/PortmapIO.o
 .debug_aranges
                0x0000000000000128       0x40 Core/Src/PortmapSPI.o
 .debug_aranges
                0x0000000000000168       0x48 Core/Src/main.o
 .debug_aranges
                0x00000000000001b0       0x40 Core/Src/stm32f7xx_hal_msp.o
 .debug_aranges
                0x00000000000001f0       0x60 Core/Src/stm32f7xx_it.o
 .debug_aranges
                0x0000000000000250       0x28 Core/Src/system_stm32f7xx.o
 .debug_aranges
                0x0000000000000278       0x28 Core/Startup/startup_stm32f767zitx.o
 .debug_aranges
                0x00000000000002a0      0x110 Drivers/STM32F7xx_HAL_Driver/Src/stm32f7xx_hal.o
 .debug_aranges
                0x00000000000003b0      0x118 Drivers/STM32F7xx_HAL_Driver/Src/stm32f7xx_hal_cortex.o
 .debug_aranges
                0x00000000000004c8       0x58 Drivers/STM32F7xx_HAL_Driver/Src/stm32f7xx_hal_gpio.o
 .debug_aranges
                0x0000000000000520       0x80 Drivers/STM32F7xx_HAL_Driver/Src/stm32f7xx_hal_pwr_ex.o
 .debug_aranges
                0x00000000000005a0       0x88 Drivers/STM32F7xx_HAL_Driver/Src/stm32f7xx_hal_rcc.o
 .debug_aranges
                0x0000000000000628       0x50 Drivers/STM32F7xx_HAL_Driver/Src/stm32f7xx_hal_rcc_ex.o
 .debug_aranges
                0x0000000000000678      0x1d8 Drivers/STM32F7xx_HAL_Driver/Src/stm32f7xx_hal_spi.o
 .debug_aranges
                0x0000000000000850      0x218 Drivers/STM32F7xx_HAL_Driver/Src/stm32f7xx_hal_uart.o

.debug_ranges   0x0000000000000000      0x970
 .debug_ranges  0x0000000000000000       0xd0 Core/Src/ILI9488.o
 .debug_ranges  0x00000000000000d0       0x38 Core/Src/PortmapIO.o
 .debug_ranges  0x0000000000000108       0x30 Core/Src/PortmapSPI.o
 .debug_ranges  0x0000000000000138       0x38 Core/Src/main.o
 .debug_ranges  0x0000000000000170       0x30 Core/Src/stm32f7xx_hal_msp.o
 .debug_ranges  0x00000000000001a0       0x50 Core/Src/stm32f7xx_it.o
 .debug_ranges  0x00000000000001f0       0x18 Core/Src/system_stm32f7xx.o
 .debug_ranges  0x0000000000000208       0x20 Core/Startup/startup_stm32f767zitx.o
 .debug_ranges  0x0000000000000228      0x100 Drivers/STM32F7xx_HAL_Driver/Src/stm32f7xx_hal.o
 .debug_ranges  0x0000000000000328      0x108 Drivers/STM32F7xx_HAL_Driver/Src/stm32f7xx_hal_cortex.o
 .debug_ranges  0x0000000000000430       0x48 Drivers/STM32F7xx_HAL_Driver/Src/stm32f7xx_hal_gpio.o
 .debug_ranges  0x0000000000000478       0x70 Drivers/STM32F7xx_HAL_Driver/Src/stm32f7xx_hal_pwr_ex.o
 .debug_ranges  0x00000000000004e8       0x78 Drivers/STM32F7xx_HAL_Driver/Src/stm32f7xx_hal_rcc.o
 .debug_ranges  0x0000000000000560       0x40 Drivers/STM32F7xx_HAL_Driver/Src/stm32f7xx_hal_rcc_ex.o
 .debug_ranges  0x00000000000005a0      0x1c8 Drivers/STM32F7xx_HAL_Driver/Src/stm32f7xx_hal_spi.o
 .debug_ranges  0x0000000000000768      0x208 Drivers/STM32F7xx_HAL_Driver/Src/stm32f7xx_hal_uart.o

.debug_macro    0x0000000000000000    0x2b2dc
 .debug_macro   0x0000000000000000      0x40a Core/Src/ILI9488.o
 .debug_macro   0x000000000000040a      0xb3e Core/Src/ILI9488.o
 .debug_macro   0x0000000000000f48      0x168 Core/Src/ILI9488.o
 .debug_macro   0x00000000000010b0       0x10 Core/Src/ILI9488.o
 .debug_macro   0x00000000000010c0      0x3f4 Core/Src/ILI9488.o
 .debug_macro   0x00000000000014b4       0x18 Core/Src/ILI9488.o
 .debug_macro   0x00000000000014cc       0x22 Core/Src/ILI9488.o
 .debug_macro   0x00000000000014ee       0x40 Core/Src/ILI9488.o
 .debug_macro   0x000000000000152e       0x17 Core/Src/ILI9488.o
 .debug_macro   0x0000000000001545       0x94 Core/Src/ILI9488.o
 .debug_macro   0x00000000000015d9       0x3c Core/Src/ILI9488.o
 .debug_macro   0x0000000000001615       0x34 Core/Src/ILI9488.o
 .debug_macro   0x0000000000001649      0x17b Core/Src/ILI9488.o
 .debug_macro   0x00000000000017c4       0x57 Core/Src/ILI9488.o
 .debug_macro   0x000000000000181b       0x52 Core/Src/ILI9488.o
 .debug_macro   0x000000000000186d       0x1f Core/Src/ILI9488.o
 .debug_macro   0x000000000000188c       0x43 Core/Src/ILI9488.o
 .debug_macro   0x00000000000018cf       0x20 Core/Src/ILI9488.o
 .debug_macro   0x00000000000018ef      0x1a3 Core/Src/ILI9488.o
 .debug_macro   0x0000000000001a92      0x353 Core/Src/ILI9488.o
 .debug_macro   0x0000000000001de5      0x1da Core/Src/ILI9488.o
 .debug_macro   0x0000000000001fbf       0x10 Core/Src/ILI9488.o
 .debug_macro   0x0000000000001fcf       0x16 Core/Src/ILI9488.o
 .debug_macro   0x0000000000001fe5       0x35 Core/Src/ILI9488.o
 .debug_macro   0x000000000000201a       0x16 Core/Src/ILI9488.o
 .debug_macro   0x0000000000002030       0x29 Core/Src/ILI9488.o
 .debug_macro   0x0000000000002059       0x10 Core/Src/ILI9488.o
 .debug_macro   0x0000000000002069      0x3c7 Core/Src/ILI9488.o
 .debug_macro   0x0000000000002430       0x1c Core/Src/ILI9488.o
 .debug_macro   0x000000000000244c       0x10 Core/Src/ILI9488.o
 .debug_macro   0x000000000000245c       0x10 Core/Src/ILI9488.o
 .debug_macro   0x000000000000246c       0x6a Core/Src/ILI9488.o
 .debug_macro   0x00000000000024d6       0x1c Core/Src/ILI9488.o
 .debug_macro   0x00000000000024f2       0x52 Core/Src/ILI9488.o
 .debug_macro   0x0000000000002544       0x40 Core/Src/ILI9488.o
 .debug_macro   0x0000000000002584       0x10 Core/Src/ILI9488.o
 .debug_macro   0x0000000000002594       0x40 Core/Src/ILI9488.o
 .debug_macro   0x00000000000025d4       0xd7 Core/Src/ILI9488.o
 .debug_macro   0x00000000000026ab       0x1c Core/Src/ILI9488.o
 .debug_macro   0x00000000000026c7       0x3d Core/Src/ILI9488.o
 .debug_macro   0x0000000000002704       0x16 Core/Src/ILI9488.o
 .debug_macro   0x000000000000271a      0x137 Core/Src/ILI9488.o
 .debug_macro   0x0000000000002851      0x293 Core/Src/ILI9488.o
 .debug_macro   0x0000000000002ae4       0x2e Core/Src/ILI9488.o
 .debug_macro   0x0000000000002b12       0x3b Core/Src/ILI9488.o
 .debug_macro   0x0000000000002b4d       0x1c Core/Src/ILI9488.o
 .debug_macro   0x0000000000002b69       0xef Core/Src/ILI9488.o
 .debug_macro   0x0000000000002c58      0x1df Core/Src/ILI9488.o
 .debug_macro   0x0000000000002e37       0x1c Core/Src/ILI9488.o
 .debug_macro   0x0000000000002e53       0x22 Core/Src/ILI9488.o
 .debug_macro   0x0000000000002e75       0xd9 Core/Src/ILI9488.o
 .debug_macro   0x0000000000002f4e     0x12cd Core/Src/ILI9488.o
 .debug_macro   0x000000000000421b      0x11f Core/Src/ILI9488.o
 .debug_macro   0x000000000000433a       0x19 Core/Src/ILI9488.o
 .debug_macro   0x0000000000004353    0x1a9b4 Core/Src/ILI9488.o
 .debug_macro   0x000000000001ed07       0x43 Core/Src/ILI9488.o
 .debug_macro   0x000000000001ed4a     0x36b4 Core/Src/ILI9488.o
 .debug_macro   0x00000000000223fe       0x5b Core/Src/ILI9488.o
 .debug_macro   0x0000000000022459     0x1add Core/Src/ILI9488.o
 .debug_macro   0x0000000000023f36      0x6c4 Core/Src/ILI9488.o
 .debug_macro   0x00000000000245fa      0x18b Core/Src/ILI9488.o
 .debug_macro   0x0000000000024785      0x117 Core/Src/ILI9488.o
 .debug_macro   0x000000000002489c      0x26f Core/Src/ILI9488.o
 .debug_macro   0x0000000000024b0b       0x27 Core/Src/ILI9488.o
 .debug_macro   0x0000000000024b32      0x24f Core/Src/ILI9488.o
 .debug_macro   0x0000000000024d81       0x71 Core/Src/ILI9488.o
 .debug_macro   0x0000000000024df2       0x58 Core/Src/ILI9488.o
 .debug_macro   0x0000000000024e4a      0x236 Core/Src/ILI9488.o
 .debug_macro   0x0000000000025080      0x14f Core/Src/ILI9488.o
 .debug_macro   0x00000000000251cf      0x3dc Core/Src/ILI9488.o
 .debug_macro   0x00000000000255ab       0x12 Core/Src/ILI9488.o
 .debug_macro   0x00000000000255bd      0x22c Core/Src/ILI9488.o
 .debug_macro   0x00000000000257e9       0x61 Core/Src/ILI9488.o
 .debug_macro   0x000000000002584a       0xa5 Core/Src/ILI9488.o
 .debug_macro   0x00000000000258ef      0x12f Core/Src/ILI9488.o
 .debug_macro   0x0000000000025a1e      0x108 Core/Src/ILI9488.o
 .debug_macro   0x0000000000025b26       0x35 Core/Src/ILI9488.o
 .debug_macro   0x0000000000025b5b      0x2fe Core/Src/ILI9488.o
 .debug_macro   0x0000000000025e59      0x589 Core/Src/ILI9488.o
 .debug_macro   0x00000000000263e2       0x44 Core/Src/ILI9488.o
 .debug_macro   0x0000000000026426      0x15c Core/Src/ILI9488.o
 .debug_macro   0x0000000000026582      0x1c0 Core/Src/ILI9488.o
 .debug_macro   0x0000000000026742      0x343 Core/Src/PortmapIO.o
 .debug_macro   0x0000000000026a85       0x16 Core/Src/PortmapIO.o
 .debug_macro   0x0000000000026a9b       0x97 Core/Src/PortmapIO.o
 .debug_macro   0x0000000000026b32      0x104 Core/Src/PortmapIO.o
 .debug_macro   0x0000000000026c36      0x343 Core/Src/PortmapSPI.o
 .debug_macro   0x0000000000026f79      0x43e Core/Src/main.o
 .debug_macro   0x00000000000273b7       0x8e Core/Src/main.o
 .debug_macro   0x0000000000027445       0x51 Core/Src/main.o
 .debug_macro   0x0000000000027496       0xdf Core/Src/main.o
 .debug_macro   0x0000000000027575       0x61 Core/Src/main.o
 .debug_macro   0x00000000000275d6       0x40 Core/Src/main.o
 .debug_macro   0x0000000000027616       0x10 Core/Src/main.o
 .debug_macro   0x0000000000027626       0x46 Core/Src/main.o
 .debug_macro   0x000000000002766c      0x34d Core/Src/main.o
 .debug_macro   0x00000000000279b9       0x1c Core/Src/main.o
 .debug_macro   0x00000000000279d5       0xde Core/Src/main.o
 .debug_macro   0x0000000000027ab3      0x3cd Core/Src/main.o
 .debug_macro   0x0000000000027e80      0x1f3 Core/Src/stm32f7xx_hal_msp.o
 .debug_macro   0x0000000000028073      0xa66 Core/Src/stm32f7xx_hal_msp.o
 .debug_macro   0x0000000000028ad9     0x12cd Core/Src/stm32f7xx_hal_msp.o
 .debug_macro   0x0000000000029da6      0x174 Core/Src/stm32f7xx_hal_msp.o
 .debug_macro   0x0000000000029f1a      0x1fd Core/Src/stm32f7xx_it.o
 .debug_macro   0x000000000002a117      0x1ea Core/Src/system_stm32f7xx.o
 .debug_macro   0x000000000002a301      0x208 Drivers/STM32F7xx_HAL_Driver/Src/stm32f7xx_hal.o
 .debug_macro   0x000000000002a509      0x1e4 Drivers/STM32F7xx_HAL_Driver/Src/stm32f7xx_hal_cortex.o
 .debug_macro   0x000000000002a6ed      0x21a Drivers/STM32F7xx_HAL_Driver/Src/stm32f7xx_hal_gpio.o
 .debug_macro   0x000000000002a907      0x1fc Drivers/STM32F7xx_HAL_Driver/Src/stm32f7xx_hal_pwr_ex.o
 .debug_macro   0x000000000002ab03      0x208 Drivers/STM32F7xx_HAL_Driver/Src/stm32f7xx_hal_rcc.o
 .debug_macro   0x000000000002ad0b      0x1e4 Drivers/STM32F7xx_HAL_Driver/Src/stm32f7xx_hal_rcc_ex.o
 .debug_macro   0x000000000002aeef      0x1ec Drivers/STM32F7xx_HAL_Driver/Src/stm32f7xx_hal_spi.o
 .debug_macro   0x000000000002b0db      0x201 Drivers/STM32F7xx_HAL_Driver/Src/stm32f7xx_hal_uart.o

.debug_line     0x0000000000000000     0xa30f
 .debug_line    0x0000000000000000     0x1162 Core/Src/ILI9488.o
 .debug_line    0x0000000000001162      0x917 Core/Src/PortmapIO.o
 .debug_line    0x0000000000001a79      0x905 Core/Src/PortmapSPI.o
 .debug_line    0x000000000000237e      0xddc Core/Src/main.o
 .debug_line    0x000000000000315a      0x74a Core/Src/stm32f7xx_hal_msp.o
 .debug_line    0x00000000000038a4      0x794 Core/Src/stm32f7xx_it.o
 .debug_line    0x0000000000004038      0x705 Core/Src/system_stm32f7xx.o
 .debug_line    0x000000000000473d       0x85 Core/Startup/startup_stm32f767zitx.o
 .debug_line    0x00000000000047c2      0x938 Drivers/STM32F7xx_HAL_Driver/Src/stm32f7xx_hal.o
 .debug_line    0x00000000000050fa      0xa15 Drivers/STM32F7xx_HAL_Driver/Src/stm32f7xx_hal_cortex.o
 .debug_line    0x0000000000005b0f      0x8f9 Drivers/STM32F7xx_HAL_Driver/Src/stm32f7xx_hal_gpio.o
 .debug_line    0x0000000000006408      0x835 Drivers/STM32F7xx_HAL_Driver/Src/stm32f7xx_hal_pwr_ex.o
 .debug_line    0x0000000000006c3d      0x99e Drivers/STM32F7xx_HAL_Driver/Src/stm32f7xx_hal_rcc.o
 .debug_line    0x00000000000075db      0x915 Drivers/STM32F7xx_HAL_Driver/Src/stm32f7xx_hal_rcc_ex.o
 .debug_line    0x0000000000007ef0     0x1167 Drivers/STM32F7xx_HAL_Driver/Src/stm32f7xx_hal_spi.o
 .debug_line    0x0000000000009057     0x12b8 Drivers/STM32F7xx_HAL_Driver/Src/stm32f7xx_hal_uart.o

.debug_str      0x0000000000000000    0xf61d1
 .debug_str     0x0000000000000000    0xf2fbf Core/Src/ILI9488.o
                                      0xf395f (size before relaxing)
 .debug_str     0x00000000000f2fbf       0x4d Core/Src/PortmapIO.o
                                      0xf031a (size before relaxing)
 .debug_str     0x00000000000f300c       0x58 Core/Src/PortmapSPI.o
                                      0xf076f (size before relaxing)
 .debug_str     0x00000000000f3064      0xa10 Core/Src/main.o
                                      0xf4467 (size before relaxing)
 .debug_str     0x00000000000f3a74      0x246 Core/Src/stm32f7xx_hal_msp.o
                                      0xec499 (size before relaxing)
 .debug_str     0x00000000000f3cba       0xbd Core/Src/stm32f7xx_it.o
                                      0xebd7c (size before relaxing)
 .debug_str     0x00000000000f3d77      0x18d Core/Src/system_stm32f7xx.o
                                      0xebe6c (size before relaxing)
 .debug_str     0x00000000000f3f04       0x36 Core/Startup/startup_stm32f767zitx.o
                                         0x73 (size before relaxing)
 .debug_str     0x00000000000f3f3a      0x9df Drivers/STM32F7xx_HAL_Driver/Src/stm32f7xx_hal.o
                                      0xec7f5 (size before relaxing)
 .debug_str     0x00000000000f4919      0x38f Drivers/STM32F7xx_HAL_Driver/Src/stm32f7xx_hal_cortex.o
                                      0xec861 (size before relaxing)
 .debug_str     0x00000000000f4ca8      0x236 Drivers/STM32F7xx_HAL_Driver/Src/stm32f7xx_hal_gpio.o
                                      0xec042 (size before relaxing)
 .debug_str     0x00000000000f4ede      0x1d1 Drivers/STM32F7xx_HAL_Driver/Src/stm32f7xx_hal_pwr_ex.o
                                      0xec0e6 (size before relaxing)
 .debug_str     0x00000000000f50af      0x274 Drivers/STM32F7xx_HAL_Driver/Src/stm32f7xx_hal_rcc.o
                                      0xec1a0 (size before relaxing)
 .debug_str     0x00000000000f5323      0x161 Drivers/STM32F7xx_HAL_Driver/Src/stm32f7xx_hal_rcc_ex.o
                                      0xec155 (size before relaxing)
 .debug_str     0x00000000000f5484      0x577 Drivers/STM32F7xx_HAL_Driver/Src/stm32f7xx_hal_spi.o
                                      0xec626 (size before relaxing)
 .debug_str     0x00000000000f59fb      0x7d6 Drivers/STM32F7xx_HAL_Driver/Src/stm32f7xx_hal_uart.o
                                      0xec9e5 (size before relaxing)

.comment        0x0000000000000000       0x7b
 .comment       0x0000000000000000       0x7b Core/Src/ILI9488.o
                                         0x7c (size before relaxing)
 .comment       0x000000000000007b       0x7c Core/Src/PortmapIO.o
 .comment       0x000000000000007b       0x7c Core/Src/PortmapSPI.o
 .comment       0x000000000000007b       0x7c Core/Src/main.o
 .comment       0x000000000000007b       0x7c Core/Src/stm32f7xx_hal_msp.o
 .comment       0x000000000000007b       0x7c Core/Src/stm32f7xx_it.o
 .comment       0x000000000000007b       0x7c Core/Src/system_stm32f7xx.o
 .comment       0x000000000000007b       0x7c Drivers/STM32F7xx_HAL_Driver/Src/stm32f7xx_hal.o
 .comment       0x000000000000007b       0x7c Drivers/STM32F7xx_HAL_Driver/Src/stm32f7xx_hal_cortex.o
 .comment       0x000000000000007b       0x7c Drivers/STM32F7xx_HAL_Driver/Src/stm32f7xx_hal_gpio.o
 .comment       0x000000000000007b       0x7c Drivers/STM32F7xx_HAL_Driver/Src/stm32f7xx_hal_pwr_ex.o
 .comment       0x000000000000007b       0x7c Drivers/STM32F7xx_HAL_Driver/Src/stm32f7xx_hal_rcc.o
 .comment       0x000000000000007b       0x7c Drivers/STM32F7xx_HAL_Driver/Src/stm32f7xx_hal_rcc_ex.o
 .comment       0x000000000000007b       0x7c Drivers/STM32F7xx_HAL_Driver/Src/stm32f7xx_hal_spi.o
 .comment       0x000000000000007b       0x7c Drivers/STM32F7xx_HAL_Driver/Src/stm32f7xx_hal_uart.o

.debug_frame    0x0000000000000000     0x29cc
 .debug_frame   0x0000000000000000      0x3c0 Core/Src/ILI9488.o
 .debug_frame   0x00000000000003c0       0xf4 Core/Src/PortmapIO.o
 .debug_frame   0x00000000000004b4       0xd4 Core/Src/PortmapSPI.o
 .debug_frame   0x0000000000000588       0xd0 Core/Src/main.o
 .debug_frame   0x0000000000000658       0xc8 Core/Src/stm32f7xx_hal_msp.o
 .debug_frame   0x0000000000000720      0x104 Core/Src/stm32f7xx_it.o
 .debug_frame   0x0000000000000824       0x58 Core/Src/system_stm32f7xx.o
 .debug_frame   0x000000000000087c      0x3f4 Drivers/STM32F7xx_HAL_Driver/Src/stm32f7xx_hal.o
 .debug_frame   0x0000000000000c70      0x498 Drivers/STM32F7xx_HAL_Driver/Src/stm32f7xx_hal_cortex.o
 .debug_frame   0x0000000000001108      0x14c Drivers/STM32F7xx_HAL_Driver/Src/stm32f7xx_hal_gpio.o
 .debug_frame   0x0000000000001254      0x1c8 Drivers/STM32F7xx_HAL_Driver/Src/stm32f7xx_hal_pwr_ex.o
 .debug_frame   0x000000000000141c      0x1f4 Drivers/STM32F7xx_HAL_Driver/Src/stm32f7xx_hal_rcc.o
 .debug_frame   0x0000000000001610      0x118 Drivers/STM32F7xx_HAL_Driver/Src/stm32f7xx_hal_rcc_ex.o
 .debug_frame   0x0000000000001728      0x860 Drivers/STM32F7xx_HAL_Driver/Src/stm32f7xx_hal_spi.o
 .debug_frame   0x0000000000001f88      0x998 Drivers/STM32F7xx_HAL_Driver/Src/stm32f7xx_hal_uart.o
 .debug_frame   0x0000000000002920       0x2c c:/st/stm32cubeide_1.5.0/stm32cubeide/plugins/com.st.stm32cube.ide.mcu.externaltools.gnu-tools-for-stm32.7-2018-q2-update.win32_1.5.0.202011040924/tools/bin/../lib/gcc/arm-none-eabi/7.3.1/../../../../arm-none-eabi/lib/thumb/v7e-m/fpv5/hard\libc_nano.a(lib_a-init.o)
 .debug_frame   0x000000000000294c       0x20 c:/st/stm32cubeide_1.5.0/stm32cubeide/plugins/com.st.stm32cube.ide.mcu.externaltools.gnu-tools-for-stm32.7-2018-q2-update.win32_1.5.0.202011040924/tools/bin/../lib/gcc/arm-none-eabi/7.3.1/../../../../arm-none-eabi/lib/thumb/v7e-m/fpv5/hard\libc_nano.a(lib_a-memset.o)
 .debug_frame   0x000000000000296c       0x2c c:/st/stm32cubeide_1.5.0/stm32cubeide/plugins/com.st.stm32cube.ide.mcu.externaltools.gnu-tools-for-stm32.7-2018-q2-update.win32_1.5.0.202011040924/tools/bin/../lib/gcc/arm-none-eabi/7.3.1/thumb/v7e-m/fpv5/hard\libgcc.a(_aeabi_uldivmod.o)
 .debug_frame   0x0000000000002998       0x34 c:/st/stm32cubeide_1.5.0/stm32cubeide/plugins/com.st.stm32cube.ide.mcu.externaltools.gnu-tools-for-stm32.7-2018-q2-update.win32_1.5.0.202011040924/tools/bin/../lib/gcc/arm-none-eabi/7.3.1/thumb/v7e-m/fpv5/hard\libgcc.a(_udivmoddi4.o)
